:100000000C948B000C94AA000C94AA000C94AA00E7
:100010000C94AA000C94AA000C94AA000C94AA00B8
:100020000C94AA000C94AA000C94AA000C94AA00A8
:100030000C94AA000C9428010C94AA000C94AA0019
:100040000C94AA000C94AA000C94AA000C94AA0088
:100050000C94AA000C94AA000C94AA000C94AA0078
:100060000C94AA000C94AA000C94AA000C94AA0068
:100070000C94AA000C94AA000C94AA000C94AA0058
:100080000C94AA000C94AA000C94AA0022038703E3
:100090008703870387038703870387038703870310
:1000A0008703870387038703870387038703870300
:1000B00087038703870387038703870387038703F0
:1000C00087038703870387038703870387038703E0
:1000D00087038103870387038703870387038703D6
:1000E0007603870387038703870387037C0328033B
:1000F0002E0334033A03400346034C0352035803D0
:1001000087038703870387038703870387035E03C8
:1001100064036A03700311241FBECFEFD0E4DEBF77
:10012000CDBF11E0A0E0B1E0E4E1FAE000E00BBFF8
:1001300002C007900D92A231B107D9F721E0A2E1E8
:10014000B1E001C01D92A432B207E1F70E9497030B
:100150000C9408050C940000CF93DF9300D000D0DE
:10016000CDB7DEB769837A838B839C8389819A813B
:10017000AB81BC818093000190930101A0930201A7
:10018000B09303018091000190910101A0910201BF
:10019000B09103018093130190931401A093150172
:1001A000B093160100000F900F900F900F90DF9109
:1001B000CF910895CF93DF93CDB7DEB781E890E07C
:1001C0002BE0FC01208388E890E02DE730E0FC0183
:1001D000318320838FE690E022E0FC01208384E8D5
:1001E00090E0FC0111821082809100019091010148
:1001F000A0910201B0910301809313019093140127
:10020000A0931501B09316018FE590E02FE530E043
:10021000F90120812068FC0120830000DF91CF914B
:100220000895CF93DF93CDB7DEB781E890E0FC016E
:1002300010820000DF91CF910895CF93DF93CDB767
:10024000DEB781E0809312010000DF91CF91089525
:100250001F920F9200905F000F92112400905B009C
:100260000F922F933F934F935F936F937F938F934F
:100270009F93AF93BF93EF93FF93CF93DF93CDB74C
:10028000DEB78091130190911401A0911501B091F6
:1002900016010197A109B1098093130190931401EC
:1002A000A0931501B0931601809113019091140150
:1002B000A0911501B0911601892B8A2B8B2B91F4FB
:1002C0000E941D018091000190910101A091020105
:1002D000B09103018093130190931401A093150131
:1002E000B09316010000DF91CF91FF91EF91BF9184
:1002F000AF919F918F917F916F915F914F913F91BE
:100300002F910F9000925B000F9000925F000F9072
:100310001F901895CF93DF9300D01F92CDB7DEB713
:1003200089836A834B838B81882371F08A81282F8C
:1003300030E081E090E002C0880F991F2A95E2F733
:10034000982F8981892B0EC08A81282F30E081E087
:1003500090E002C0880F991F2A95E2F7982F909598
:10036000898189230F900F900F90DF91CF9108958D
:10037000CF93DF9300D0CDB7DEB789836A838A81BC
:10038000282F30E081E090E002C0880F991F2A9565
:10039000E2F7982F898189230F900F90DF91CF91F9
:1003A0000895CF93DF93CDB7DEB788E290E02FEECC
:1003B000FC012083000086E290E0FC01808160E087
:1003C0000E94B801882311F481E386C086E290E0A0
:1003D000FC01808161E00E94B801882311F484E36C
:1003E0007BC086E290E0FC01808162E00E94B8015F
:1003F000882311F487E370C086E290E0FC018081DD
:1004000063E00E94B801882311F48AE265C088E2A3
:1004100090E02FEDFC012083000086E290E0FC01DB
:10042000808160E00E94B801882311F482E354C007
:1004300086E290E0FC01808161E00E94B80188239F
:1004400011F485E349C086E290E0FC01808162E01E
:100450000E94B801882311F488E33EC086E290E050
:10046000FC01808163E00E94B801882311F480E3DD
:1004700033C088E290E02FEBFC012083000086E28D
:1004800090E0FC01808160E00E94B801882311F4B3
:1004900083E322C086E290E0FC01808161E00E945B
:1004A000B801882311F486E317C086E290E0FC01CE
:1004B000808162E00E94B801882311F489E30CC0B6
:1004C00086E290E0FC01808163E00E94B80188230D
:1004D00011F483E201C080E0DF91CF910895CF93C2
:1004E000DF93CDB7DEB72C970FB6F894DEBF0FBE03
:1004F000CDBF6D837E838F83988729873A874B870B
:100500005C878D819E81AF81B88529853A854B8531
:100510005C85BC01CD010E94DD04DC01CB01898337
:100520009A83AB83BC8389819A81AB81BC81892BFF
:100530008A2B8B2B29F489859A85AB85BC8511C0C4
:1005400089859A85AB85BC858D839E83AF83B8876B
:1005500089819A81AB81BC8189879A87AB87BC8767
:10056000D0CFBC01CD012C960FB6F894DEBF0FBEE4
:10057000CDBFDF91CF910895CF93DF9300D01F922D
:10058000CDB7DEB789837B836A8389818A3031F472
:100590008A819B81BC018DE00E94BC0280EC90E0CE
:1005A000FC018081882F90E080729927892BB1F31C
:1005B00086EC90E02981FC01208380E090E00F90A0
:1005C0000F900F90DF91CF910895CF93DF9300D0DC
:1005D0001F92CDB7DEB79B838A830E94D1018983A6
:1005E0008A819B81009719F0019731F00AC081E060
:1005F00090E09B838A8308C081E090E09B838A839C
:1006000003C01B821A8200008A819B81009709F433
:1006100085C0019709F083C08981882F90E0092E59
:10062000000CAA0BBB0B40E050E024E430E0841B3C
:10063000950B2817390708F46AC08A5B9F4FFC01A5
:100640000C94FF0485E290E02FE1FC01208365C05B
:1006500085E290E021E0FC0120835FC085E290E02C
:1006600022E0FC01208359C085E290E023E0FC01F8
:10067000208353C085E290E024E0FC0120834DC03C
:1006800085E290E025E0FC01208347C085E290E010
:1006900026E0FC01208341C085E290E027E0FC01D8
:1006A00020833BC085E290E028E0FC01208335C038
:1006B00085E290E029E0FC0120832FC085E290E0F4
:1006C0002AE0FC01208329C085E290E02BE0FC01B8
:1006D000208323C085E290E02CE0FC0120831DC034
:1006E00085E290E02DE0FC01208317C085E290E0D8
:1006F0002EE0FC01208311C085E290E0FC01108215
:100700000CC085E290E02FE0FC01208306C085E26A
:1007100090E02BE1FC012083000001C000008A81F1
:100720009B810F900F900F90DF91CF9108950F93C1
:100730001F93CF93DF93CDB7DEB72D970FB6F89405
:10074000DEBF0FBECDBF81E290E0FC01108282E2ED
:1007500090E02FEFFC01208384E290E02FEFFC017A
:10076000208385E290E0FC01108287E290E020EF98
:10077000FC01208388E290E02FE0FC01208387E1E8
:1007800091E09D878C8781E090E09A8789871B861E
:100790008B858093170182E390E0A0E0B0E0809326
:1007A000180190931901A0931A01B0931B01809135
:1007B000180190911901A0911A01B0911B01809329
:1007C0001C0190931D01A0931E01B0931F0185EEA3
:1007D00092E090932101809320018C859D85FC01FE
:1007E00081819281A381B48189839A83AB83BC8305
:1007F0001E821D8225C08D819E81880F991F9E01BA
:100800002F5F3F4F820F931F0B96FC0180819181D8
:10081000FC01218132814381548189819A81AB819C
:10082000BC81BC01CD010E946F02DC01CB01898338
:100830009A83AB83BC838D819E8101969E838D8339
:100840002D813E8189859A8528173907A0F262E3B8
:1008500070E080E090E00E94AC000E94DA00188610
:100860001F829BC08F819885880F991F9E012F5FE3
:100870003F4F820F931F0B96FC0180819181FC01F9
:1008800025813681478150858F819885880F991FF2
:10089000BE016F5F7F4F860F971F0B96FC01808113
:1008A0009181FC0181819281A381B481281739074C
:1008B0004A075B0709F045C08F819885880F991F0B
:1008C0009E012F5F3F4F820F931F0B96FC0100810B
:1008D00011818F819885880F991F9E012F5F3F4F4F
:1008E000820F931F0B96FC0180819181FC01218571
:1008F00032858F819885880F991FAE014F5F5F4FBA
:10090000840F951F0B96FC0180819181FC018081F1
:10091000082E000C990BF9010995F80180838F814D
:100920009885880F991F9E012F5F3F4F820F931F5D
:100930000B96FC0180819181FC0115821682178241
:1009400010868F819885880F991F9E012F5F3F4FDA
:10095000820F931F0B96FC01208131818F81988536
:10096000880F991FAE014F5F5F4F840F951F0B9645
:10097000FC0180819181FC0185819681A781B085F0
:10098000C296A11DB11DF90185839683A783B08707
:100990008F819885019698878F832F8138858985E7
:1009A0009A852817390708F45DCF0000809112015D
:1009B0008823E1F31092120152CFA1E21A2EAA1B52
:1009C000BB1BFD010DC0AA1FBB1FEE1FFF1FA217FF
:1009D000B307E407F50720F0A21BB30BE40BF50BFC
:1009E000661F771F881F991F1A9469F76095709585
:1009F000809590959B01AC01BD01CF010895EE0F4C
:100A0000FF1F0024001C0BBE0790F691E02D0994F7
:040A1000F894FFCF88
:100A1400010000000000000200000000BC02000011
:020A24000000D0
:00000001FF
