:100000000C9446000C9465000C9465000C946500FB
:100010000C9465000C9465000C9465000C946500CC
:100020000C9465000C9465000C9465000C946500BC
:100030000C9465000C94E3000C9465000C9465002E
:100040000C9465000C9465000C9465000C9465009C
:100050000C9465000C9465000C9465000C9465008C
:100060000C9465000C9465000C9465000C9465007C
:100070000C9465000C9465000C9465000C9465006C
:100080000C9465000C9465000C94650011241FBE4F
:10009000CFEFD0E4DEBFCDBF11E0A0E0B1E0E6ECF1
:1000A000F0E100E00BBF02C007900D92A43FB10742
:1000B000D9F722E0A4EFB1E001C01D92A931B20747
:1000C000E1F70E9424050C9461080C940000CF9382
:1000D000DF9300D000D0CDB7DEB769837A838B83FE
:1000E0009C8389819A81AB81BC818093000190932C
:1000F0000101A0930201B09303018091000190914E
:100100000101A0910201B09103018093F501909348
:10011000F601A093F701B093F80100000F900F9043
:100120000F900F90DF91CF910895CF93DF93CDB7CC
:10013000DEB781E890E02BE0FC01208388E890E0C6
:100140002DE730E0FC01318320838FE690E022E050
:10015000FC01208384E890E0FC01118210828091F0
:10016000000190910101A0910201B09103018093DF
:10017000F5019093F601A093F701B093F8018FE594
:1001800090E02FE530E0F90120812068FC01208318
:100190000000DF91CF910895CF93DF93CDB7DEB705
:1001A00081E890E0FC0110820000DF91CF9108957A
:1001B000CF93DF93CDB7DEB781E08093F4010000E9
:1001C000DF91CF9108951F920F9200905F000F92E0
:1001D000112400905B000F922F933F934F935F93F6
:1001E0006F937F938F939F93AF93BF93EF93FF93FF
:1001F000CF93DF93CDB7DEB78091F5019091F601F3
:10020000A091F701B091F8010197A109B10980937C
:10021000F5019093F601A093F701B093F801809156
:10022000F5019091F601A091F701B091F801892BA9
:100230008A2B8B2B91F40E94D80080910001909121
:100240000101A0910201B09103018093F501909307
:10025000F601A093F701B093F8010000DF91CF9170
:10026000FF91EF91BF91AF919F918F917F916F918E
:100270005F914F913F912F910F9000925B000F90F3
:1002800000925F000F901F901895CF93DF9300D0DE
:100290001F92CDB7DEB789836A834B838B81882316
:1002A00071F08A81282F30E081E090E002C0880F51
:1002B000991F2A95E2F7982F8981892B0EC08A8190
:1002C000282F30E081E090E002C0880F991F2A9526
:1002D000E2F7982F9095898189230F900F900F90C6
:1002E000DF91CF910895CF93DF9300D0CDB7DEB7E4
:1002F00089836A838A81282F30E081E090E002C000
:10030000880F991F2A95E2F7982F898189230F90EA
:100310000F90DF91CF910895CF93DF93CDB7DEB7E4
:1003200088E290E02FEEFC012083000086E290E05E
:10033000FC01808160E00E947301882311F481E355
:10034000B8C086E290E0FC01808161E00E94730108
:10035000882311F484E3ADC086E290E0FC01808143
:1003600062E00E947301882311F487E3A2C086E251
:1003700090E0FC01808163E00E947301882311F406
:100380008AE297C088E290E02FEDFC012083000014
:1003900086E290E0FC01808160E00E947301882386
:1003A00011F482E386C086E290E0FC01808161E086
:1003B0000E947301882311F485E37BC086E290E0FC
:1003C000FC01808162E00E947301882311F488E3BC
:1003D00070C086E290E0FC01808163E00E947301BE
:1003E000882311F480E365C088E290E02FEBFC01E4
:1003F0002083000086E290E0FC01808160E00E94A2
:100400007301882311F483E354C086E290E0FC0179
:10041000808161E00E947301882311F486E349C062
:1004200086E290E0FC01808162E00E9473018823F3
:1004300011F489E33EC086E290E0FC01808163E034
:100440000E947301882311F483E233C088E290E0B4
:100450002FE7FC012083000086E290E0FC01808110
:1004600060E00E947301882311F481E422C086E2D7
:1004700090E0FC01808161E00E947301882311F407
:1004800082E417C086E290E0FC01808162E00E9475
:100490007301882311F483E40CC086E290E0FC0130
:1004A000808163E00E947301882311F484E401C019
:1004B00080E0DF91CF910895CF93DF93CDB7DEB782
:1004C0002C970FB6F894DEBF0FBECDBF6D837E8331
:1004D0008F83988729873A874B875C878D819E8198
:1004E000AF81B88529853A854B855C85BC01CD01F6
:1004F0000E94AB06DC01CB0189839A83AB83BC836A
:1005000089819A81AB81BC81892B8A2B8B2B29F421
:1005100089859A85AB85BC8511C089859A85AB850F
:10052000BC858D839E83AF83B88789819A81AB8197
:10053000BC8189879A87AB87BC87D0CFBC01CD01AE
:100540002C960FB6F894DEBF0FBECDBFDF91CF91D2
:1005500008950F931F93CF93DF9300D000D0CDB7B2
:10056000DEB769837A838B839C838091FD019091B0
:10057000FE01A091FF01B09100029C01AD016981D3
:100580007A818B819C810E94CD06882309F477C0F3
:1005900020E030E0A90169817A818B819C810E94F1
:1005A000CD06882351F481E990E021E930E0F9019A
:1005B00020812870FC01208309C081E990E021E9B5
:1005C00030E0F90120812360FC01208328E539E334
:1005D00044E75FE369817A818B819C810E94CD062B
:1005E000882344F488E990E02FEF3FEFFC0131834A
:1005F000208334C020E03CE24BEF56E469817A81ED
:100600008B819C810E94EF07181634F488E990E0F2
:10061000FC011182108222C008E910E020E030E0E5
:1006200040E053E469817A818B819C810E94F407C8
:10063000DC01CB019C01AD0160E074E284EF9AE43F
:100640000E94D206DC01CB01BC01CD010E9444070F
:10065000DC01CB010197F8019183808384E990E06C
:10066000FC011182108289819A81AB81BC818093C7
:10067000FD019093FE01A093FF01B09300020000E2
:100680000F900F900F900F90DF91CF911F910F91CE
:100690000895CF93DF93CDB7DEB780E990E020E4F3
:1006A000FC01208381E990E02BE0FC01208360E0E5
:1006B00070E0CB010E94A9020000DF91CF91089564
:1006C000CF93DF93CDB7DEB780E990E0FC011082D5
:1006D00081E990E0FC0110820000DF91CF91089544
:1006E000CF93DF9300D01F92CDB7DEB789837B8392
:1006F0006A8389818A3031F48A819B81BC018DE0D3
:100700000E94700380EC90E0FC018081882F90E0D3
:1007100080729927892BB1F386EC90E02981FC0146
:10072000208380E090E00F900F900F90DF91CF91A9
:100730000895CF93DF9300D000D0CDB7DEB79C8370
:100740008B830E948C01898383E290E0FC0180818D
:10075000809580788A838B819C818230910509F411
:1007600086C0833091052CF4009771F0019789F0D1
:1007700098C08430910509F46DC08430910554F11E
:10078000059709F484C08DC081E090E09C838B8341
:1007900088C08981833271F483E090E09C838B83ED
:1007A0008091F9019091FA0101969093FA0180935A
:1007B000F90177C083E290E0FC01808188232CF06E
:1007C00085E090E09C838B836CC081E090E09C830B
:1007D0008B8367C08091F9019091FA018E5E9E4FE4
:1007E000FC01908189819817C9F484E090E09C8392
:1007F0008B838091F9019091FA0101969093FA010F
:100800008093F9018091F9019091FA01069709F01E
:1008100047C082E090E09C838B8342C0898188231B
:1008200029F483E090E09C838B833AC083E290E0DC
:10083000FC01808188232CF085E090E09C838B83F1
:100840002FC081E090E09C838B831092FA0110927C
:10085000F90126C08981882329F483E090E09C83F4
:100860008B831FC084E090E09C838B831AC083E25B
:1008700090E0FC01808188232CF085E090E09C834F
:100880008B830FC082E090E09C838B830AC0109220
:10089000FA011092F90181E090E09C838B8301C002
:1008A00000008B819C8183309105D1F084309105CB
:1008B00034F481309105B1F0029739F016C08430DC
:1008C000910591F0059739F010C085E290E021E0A4
:1008D000FC0120830AC085E290E0FC01108205C083
:1008E000000003C0000001C000008B819C810F90BC
:1008F0000F900F900F90DF91CF910895CF93DF93DA
:1009000000D01F92CDB7DEB79B838A8380E290E050
:10091000FC0180818095807889838A819B818130E8
:10092000910589F0823091051CF4892B39F041C082
:1009300082309105C9F0039779F13BC081E090E0E6
:100940009B838A8336C08981803849F41092FC01E8
:100950001092FB0182E090E09B838A832AC081E0B1
:1009600090E09B838A8325C08091FB019091FC01DC
:10097000C7972CF482E090E09B838A831AC0898118
:10098000803829F483E090E09B838A8312C081E061
:1009900090E09B838A830DC08981803829F483E0AD
:1009A00090E09B838A8304C081E090E09B838A83EC
:1009B00000008A819B818130910561F08230910530
:1009C0001CF4892BB1F138C08230910549F00397AE
:1009D00051F132C060E070E0CB010E94A9022CC04E
:1009E0008091FB019091FC01C7972CF58091FB0150
:1009F0009091FC01880F991F880F991F885E9E4F68
:100A0000FC0180819181A281B381BC01CD010E9452
:100A1000A9028091FB019091FC0101969093FC0149
:100A20008093FB0108C060E070E0CB010E94A90246
:100A300003C0000001C000008A819B810F900F90CD
:100A40000F90DF91CF9108950F931F93CF93DF9372
:100A5000CDB7DEB763970FB6F894DEBF0FBECDBF3C
:100A600081E290E0FC01108282E290E02FEFFC0135
:100A7000208384E290E02FE7FC01208385E290E070
:100A800020E8FC01208387E290E020EFFC01208336
:100A900088E290E02FE0FC01208381E092E0998BD6
:100AA000888B8CE092E09B8B8A8B82E090E09A8727
:100AB00089871B868B858093010282E390E0A0E00A
:100AC000B0E08093020290930302A0930402B093DB
:100AD00005028091020290910302A0910402B0915C
:100AE00005028093060290930702A0930802B09338
:100AF000090289E993E090930B0280930A02109215
:100B00000C0284E690E0A0E0B0E080930D029093A8
:100B10000E02A0930F02B093100280910D029091EB
:100B20000E02A0910F02B0911002809311029093D7
:100B30001202A0931302B09314028EE794E09093F4
:100B400016028093150288899989FC01818192811E
:100B5000A381B48189839A83AB83BC831E821D8267
:100B600025C08D819E81880F991F9E012F5F3F4F69
:100B7000820F931F0F96FC0180819181FC012181DE
:100B800032814381548189819A81AB81BC81BC01CE
:100B9000CD010E945C02DC01CB0189839A83AB8387
:100BA000BC838D819E8101969E838D832D813E81A4
:100BB00089859A8528173907A0F262E370E080E002
:100BC00090E00E9467000E9495000E9449031886E9
:100BD0001F82ADC08F819885880F991F9E012F5F5E
:100BE0003F4F820F931F0F96FC0180819181FC0182
:100BF00025813681478150858F819885880F991F7F
:100C0000BE016F5F7F4F860F971F0F96FC0180819B
:100C10009181FC0181819281A381B48128173907D8
:100C20004A075B0708F445C08F819885880F991F94
:100C30009E012F5F3F4F820F931F0F96FC01008193
:100C400011818F819885880F991F9E012F5F3F4FDB
:100C5000820F931F0F96FC0180819181FC012185F9
:100C600032858F819885880F991FAE014F5F5F4F46
:100C7000840F951F0F96FC0180819181FC0180817A
:100C8000082E000C990BF9010995F80180838F81DA
:100C90009885880F991F9E012F5F3F4F820F931FEA
:100CA0000F96FC0180819181FC01158216821782CA
:100CB00010868F819885880F991F9E012F5F3F4F67
:100CC000820F931F0F96FC01608171818F8198853F
:100CD000880F991F9E012F5F3F4F820F931F0F9622
:100CE000FC0180819181FC012581368147815085FD
:100CF0008F819885880F991FFE0131968E0F9F1F57
:100D00000F96FC0180819181FC0181819281A381F8
:100D1000B481820F931FA41FB51FFB0185839683A7
:100D2000A783B0878F819885019698878F832F81BD
:100D3000388589859A852817390708F44BCF1C8692
:100D40001D861E861F8600008091F4018823E1F332
:100D50001092F4013CCFA1E21A2EAA1BBB1BFD018D
:100D60000DC0AA1FBB1FEE1FFF1FA217B307E4078A
:100D7000F50720F0A21BB30BE40BF50B661F771FE2
:100D8000881F991F1A9469F76095709580959095C2
:100D90009B01AC01BD01CF0108950E947A0708F4C0
:100DA00081E008950E94E6060C94B5070E94AE0704
:100DB00058F00E94A70740F029F45F3F29F00C94F7
:100DC0009E0751110C94E9070C94A4070E94C607D2
:100DD00068F39923B1F3552391F3951B550BBB276A
:100DE000AA2762177307840738F09F5F5F4F220FAF
:100DF000331F441FAA1FA9F335D00E2E3AF0E0E8A6
:100E000032D091505040E695001CCAF72BD0FE2FEF
:100E100029D0660F771F881FBB1F26173707480783
:100E2000AB07B0E809F0BB0B802DBF01FF2793583B
:100E30005F4F3AF09E3F510578F00C949E070C945A
:100E4000E9075F3FE4F3983ED4F38695779567957D
:100E5000B795F7959F5FC9F7880F911D9695879570
:100E600097F90895E1E0660F771F881FBB1F62178F
:100E700073078407BA0720F0621B730B840BBA0B4D
:100E8000EE1F88F7E09508950E944B076894B11112
:100E90000C94E90708950E94CE0788F09F5798F0B8
:100EA000B92F9927B751B0F0E1F0660F771F881F6F
:100EB000991F1AF0BA95C9F714C0B13091F00E9489
:100EC000E807B1E008950C94E807672F782F88278A
:100ED000B85F39F0B93FCCF3869577956795B395B0
:100EE000D9F73EF490958095709561957F4F8F4F1F
:100EF0009F4F0895990F0008550FAA0BE0E8FEEFE9
:100F000016161706E807F907C0F012161306E407CD
:100F1000F50798F0621B730B840B950B39F40A26C6
:100F200061F0232B242B252B21F408950A2609F4A4
:100F3000A140A6958FEF811D811D089597F99F67A8
:100F400080E870E060E008959FEF80EC0895002451
:100F50000A941616170618060906089500240A941E
:100F600012161306140605060895092E0394000CA4
:100F700011F4882352F0BB0F40F4BF2B11F460FF33
:100F800004C06F5F7F4F8F4F9F4F089557FD90585C
:100F9000440F551F59F05F3F71F04795880F97FB3D
:100FA000991F61F09F3F79F08795089512161306F7
:100FB0001406551FF2CF4695F1DF08C01616170626
:100FC0001806991FF1CF869571056105089408955B
:100FD000E894BB2766277727CB0197F908950E94ED
:100FE0007A0708F48FEF08950E9407080C94B5075C
:100FF0000E94A70738F00E94AE0720F0952311F059
:101000000C949E070C94A40711240C94E9070E94E9
:10101000C60770F3959FC1F3950F50E0551F629F6F
:10102000F001729FBB27F00DB11D639FAA27F00D41
:10103000B11DAA1F649F6627B00DA11D661F829F68
:101040002227B00DA11D621F739FB00DA11D621F4D
:10105000839FA00D611D221F749F3327A00D611D6A
:10106000231F849F600D211D822F762F6A2F11244C
:101070009F5750409AF0F1F088234AF0EE0FFF1F7F
:10108000BB1F661F771F881F91505040A9F79E3FD6
:10109000510580F00C949E070C94E9075F3FE4F340
:1010A000983ED4F3869577956795B795F795E7952C
:1010B0009F5FC1F7FE2B880F911D9695879597F935
:0610C0000895F894FFCF33
:1010C60001000000000000020000000070030000A4
:1010D600000023313233343500C0124400C01244BC
:1010E60000800A4400800A4400C0124400C0124432
:1010F60000C0124400C0124400A02E4400A02E449A
:1011060000A02E4400A02E4400800A4400800A4419
:1011160000800A4400800A4400800A4400800A4491
:1011260000800A440000F7430000F7430000F7433D
:101136000000F7430000DC430000DC430000F743F7
:101146000000F7430000F7430000F74300C01244D5
:1011560000C0124400C0124400C0124400A02E4435
:1011660000A02E4400A02E4400A02E4466A64F44A4
:1011760066A64F4400A02E4400A02E4466A64F4407
:1011860066A64F4433F3764433F3764433F376441A
:1011960033F3764400A02E4400A02E4400A02E4433
:1011A60000A02E4433D3244433D3244400C0124435
:0411B60000C012441F
:00000001FF
